{
  "_format": "hh-sol-artifact-1",
  "contractName": "LXLabsMarketplace",
  "sourceName": "src/backend/contracts/Marketplace.sol",
  "abi": [
    {
      "inputs": [],
      "stateMutability": "nonpayable",
      "type": "constructor"
    },
    {
      "anonymous": false,
      "inputs": [
        {
          "indexed": false,
          "internalType": "uint256",
          "name": "itemId",
          "type": "uint256"
        },
        {
          "indexed": true,
          "internalType": "address",
          "name": "nft",
          "type": "address"
        },
        {
          "indexed": false,
          "internalType": "uint256",
          "name": "tokenId",
          "type": "uint256"
        },
        {
          "indexed": false,
          "internalType": "uint256",
          "name": "price",
          "type": "uint256"
        },
        {
          "indexed": true,
          "internalType": "address",
          "name": "seller",
          "type": "address"
        },
        {
          "indexed": true,
          "internalType": "address",
          "name": "buyer",
          "type": "address"
        }
      ],
      "name": "Bought",
      "type": "event"
    },
    {
      "anonymous": false,
      "inputs": [
        {
          "indexed": false,
          "internalType": "uint256",
          "name": "itemId",
          "type": "uint256"
        },
        {
          "indexed": true,
          "internalType": "address",
          "name": "nft",
          "type": "address"
        },
        {
          "indexed": false,
          "internalType": "uint256",
          "name": "tokenId",
          "type": "uint256"
        },
        {
          "indexed": false,
          "internalType": "uint256",
          "name": "price",
          "type": "uint256"
        },
        {
          "indexed": true,
          "internalType": "address",
          "name": "seller",
          "type": "address"
        }
      ],
      "name": "Offered",
      "type": "event"
    },
    {
      "anonymous": false,
      "inputs": [
        {
          "indexed": true,
          "internalType": "address",
          "name": "previousOwner",
          "type": "address"
        },
        {
          "indexed": true,
          "internalType": "address",
          "name": "newOwner",
          "type": "address"
        }
      ],
      "name": "OwnershipTransferred",
      "type": "event"
    },
    {
      "inputs": [],
      "name": "OWNER",
      "outputs": [
        {
          "internalType": "address",
          "name": "",
          "type": "address"
        }
      ],
      "stateMutability": "view",
      "type": "function"
    },
    {
      "inputs": [],
      "name": "feeAccount",
      "outputs": [
        {
          "internalType": "address payable",
          "name": "",
          "type": "address"
        }
      ],
      "stateMutability": "view",
      "type": "function"
    },
    {
      "inputs": [],
      "name": "feePercent",
      "outputs": [
        {
          "internalType": "uint256",
          "name": "",
          "type": "uint256"
        }
      ],
      "stateMutability": "view",
      "type": "function"
    },
    {
      "inputs": [
        {
          "internalType": "uint256",
          "name": "_itemId",
          "type": "uint256"
        }
      ],
      "name": "getTotalPrice",
      "outputs": [
        {
          "internalType": "uint256",
          "name": "",
          "type": "uint256"
        }
      ],
      "stateMutability": "view",
      "type": "function"
    },
    {
      "inputs": [],
      "name": "itemCount",
      "outputs": [
        {
          "internalType": "uint256",
          "name": "",
          "type": "uint256"
        }
      ],
      "stateMutability": "view",
      "type": "function"
    },
    {
      "inputs": [
        {
          "internalType": "uint256",
          "name": "",
          "type": "uint256"
        }
      ],
      "name": "items",
      "outputs": [
        {
          "internalType": "uint256",
          "name": "itemId",
          "type": "uint256"
        },
        {
          "internalType": "contract IERC721",
          "name": "nft",
          "type": "address"
        },
        {
          "internalType": "uint256",
          "name": "tokenId",
          "type": "uint256"
        },
        {
          "internalType": "uint256",
          "name": "price",
          "type": "uint256"
        },
        {
          "internalType": "address payable",
          "name": "seller",
          "type": "address"
        },
        {
          "internalType": "bool",
          "name": "sold",
          "type": "bool"
        }
      ],
      "stateMutability": "view",
      "type": "function"
    },
    {
      "inputs": [
        {
          "internalType": "contract IERC721",
          "name": "_nft",
          "type": "address"
        },
        {
          "internalType": "uint256",
          "name": "_tokenId",
          "type": "uint256"
        },
        {
          "internalType": "uint256",
          "name": "_price",
          "type": "uint256"
        }
      ],
      "name": "makeItem",
      "outputs": [],
      "stateMutability": "nonpayable",
      "type": "function"
    },
    {
      "inputs": [],
      "name": "owner",
      "outputs": [
        {
          "internalType": "address",
          "name": "",
          "type": "address"
        }
      ],
      "stateMutability": "view",
      "type": "function"
    },
    {
      "inputs": [
        {
          "internalType": "uint256",
          "name": "_itemId",
          "type": "uint256"
        }
      ],
      "name": "purchaseItem",
      "outputs": [],
      "stateMutability": "payable",
      "type": "function"
    },
    {
      "inputs": [],
      "name": "renounceOwnership",
      "outputs": [],
      "stateMutability": "nonpayable",
      "type": "function"
    },
    {
      "inputs": [
        {
          "internalType": "uint256",
          "name": "_feePercent",
          "type": "uint256"
        }
      ],
      "name": "setFeePercent",
      "outputs": [],
      "stateMutability": "nonpayable",
      "type": "function"
    },
    {
      "inputs": [
        {
          "internalType": "address",
          "name": "newOwner",
          "type": "address"
        }
      ],
      "name": "transferOwnership",
      "outputs": [],
      "stateMutability": "nonpayable",
      "type": "function"
    },
    {
      "inputs": [],
      "name": "withdrawFunds",
      "outputs": [],
      "stateMutability": "nonpayable",
      "type": "function"
    }
  ],
  "bytecode": "0x608060405234801561001057600080fd5b50600160008190555061003561002a6100c960201b60201c565b6100d160201b60201c565b33600560006101000a81548173ffffffffffffffffffffffffffffffffffffffff021916908373ffffffffffffffffffffffffffffffffffffffff160217905550655c8222d6b40060038190555033600260006101000a81548173ffffffffffffffffffffffffffffffffffffffff021916908373ffffffffffffffffffffffffffffffffffffffff160217905550610197565b600033905090565b6000600160009054906101000a900473ffffffffffffffffffffffffffffffffffffffff16905081600160006101000a81548173ffffffffffffffffffffffffffffffffffffffff021916908373ffffffffffffffffffffffffffffffffffffffff1602179055508173ffffffffffffffffffffffffffffffffffffffff168173ffffffffffffffffffffffffffffffffffffffff167f8be0079c531659141344cd1fd0a4f28419497f9722a3daafe3b4186f6b6457e060405160405180910390a35050565b61162d806101a66000396000f3fe6080604052600436106100c25760003560e01c80637fd6f15c1161007f578063ca7dd37511610059578063ca7dd37514610237578063d38ea5bf14610274578063f2fde38b14610290578063fa00afc7146102b9576100c2565b80637fd6f15c1461019f5780638da5cb5b146101ca578063bfb231d2146101f5576100c2565b8063117803e3146100c757806324600fc3146100f257806365e17c9d146101095780636bfb0d0114610134578063715018a61461015f5780637ce3489b14610176575b600080fd5b3480156100d357600080fd5b506100dc6102e2565b6040516100e99190610fa1565b60405180910390f35b3480156100fe57600080fd5b50610107610308565b005b34801561011557600080fd5b5061011e61039c565b60405161012b9190610fbc565b60405180910390f35b34801561014057600080fd5b506101496103c2565b604051610156919061110e565b60405180910390f35b34801561016b57600080fd5b506101746103c8565b005b34801561018257600080fd5b5061019d60048036038101906101989190610e15565b6103dc565b005b3480156101ab57600080fd5b506101b46103ee565b6040516101c1919061110e565b60405180910390f35b3480156101d657600080fd5b506101df6103f4565b6040516101ec9190610fa1565b60405180910390f35b34801561020157600080fd5b5061021c60048036038101906102179190610e15565b61041e565b60405161022e96959493929190611129565b60405180910390f35b34801561024357600080fd5b5061025e60048036038101906102599190610e15565b6104a7565b60405161026b919061110e565b60405180910390f35b61028e60048036038101906102899190610e15565b6104ec565b005b34801561029c57600080fd5b506102b760048036038101906102b29190610d9d565b6108bc565b005b3480156102c557600080fd5b506102e060048036038101906102db9190610dc6565b610940565b005b600560009054906101000a900473ffffffffffffffffffffffffffffffffffffffff1681565b610310610c12565b60004711610353576040517f08c379a000000000000000000000000000000000000000000000000000000000815260040161034a906110ae565b60405180910390fd5b3373ffffffffffffffffffffffffffffffffffffffff166108fc479081150290604051600060405180830381858888f19350505050158015610399573d6000803e3d6000fd5b50565b600260009054906101000a900473ffffffffffffffffffffffffffffffffffffffff1681565b60045481565b6103d0610c12565b6103da6000610c90565b565b6103e4610c12565b8060038190555050565b60035481565b6000600160009054906101000a900473ffffffffffffffffffffffffffffffffffffffff16905090565b60066020528060005260406000206000915090508060000154908060010160009054906101000a900473ffffffffffffffffffffffffffffffffffffffff16908060020154908060030154908060040160009054906101000a900473ffffffffffffffffffffffffffffffffffffffff16908060040160149054906101000a900460ff16905086565b6000606460035460646104ba91906111d2565b60066000858152602001908152602001600020600301546104db9190611259565b6104e59190611228565b9050919050565b60026000541415610532576040517f08c379a0000000000000000000000000000000000000000000000000000000008152600401610529906110ee565b60405180910390fd5b60026000819055506000610545826104a7565b9050600060066000848152602001908152602001600020905060008311801561057057506004548311155b6105af576040517f08c379a00000000000000000000000000000000000000000000000000000000081526004016105a69061108e565b60405180910390fd5b813410156105f2576040517f08c379a00000000000000000000000000000000000000000000000000000000081526004016105e99061106e565b60405180910390fd5b8060040160149054906101000a900460ff1615610644576040517f08c379a000000000000000000000000000000000000000000000000000000000815260040161063b9061100e565b60405180910390fd5b8060040160009054906101000a900473ffffffffffffffffffffffffffffffffffffffff1673ffffffffffffffffffffffffffffffffffffffff166108fc82600301549081150290604051600060405180830381858888f193505050501580156106b2573d6000803e3d6000fd5b50600260009054906101000a900473ffffffffffffffffffffffffffffffffffffffff1673ffffffffffffffffffffffffffffffffffffffff166108fc8260030154846106ff91906112b3565b9081150290604051600060405180830381858888f1935050505015801561072a573d6000803e3d6000fd5b5060018160040160146101000a81548160ff0219169083151502179055508060010160009054906101000a900473ffffffffffffffffffffffffffffffffffffffff1673ffffffffffffffffffffffffffffffffffffffff166323b872dd303384600201546040518463ffffffff1660e01b81526004016107ad93929190610fd7565b600060405180830381600087803b1580156107c757600080fd5b505af11580156107db573d6000803e3d6000fd5b505050503373ffffffffffffffffffffffffffffffffffffffff168160040160009054906101000a900473ffffffffffffffffffffffffffffffffffffffff1673ffffffffffffffffffffffffffffffffffffffff168260010160009054906101000a900473ffffffffffffffffffffffffffffffffffffffff1673ffffffffffffffffffffffffffffffffffffffff167f8b4c9c8a607d67b321582dd8461041b1dc2ceeca70c8b7f37f8e02095cf2e76d86856002015486600301546040516108a79392919061118a565b60405180910390a45050600160008190555050565b6108c4610c12565b600073ffffffffffffffffffffffffffffffffffffffff168173ffffffffffffffffffffffffffffffffffffffff161415610934576040517f08c379a000000000000000000000000000000000000000000000000000000000815260040161092b9061104e565b60405180910390fd5b61093d81610c90565b50565b60026000541415610986576040517f08c379a000000000000000000000000000000000000000000000000000000000815260040161097d906110ee565b60405180910390fd5b6002600081905550600081116109d1576040517f08c379a00000000000000000000000000000000000000000000000000000000081526004016109c89061102e565b60405180910390fd5b600460008154809291906109e490611377565b91905055508273ffffffffffffffffffffffffffffffffffffffff166323b872dd3330856040518463ffffffff1660e01b8152600401610a2693929190610fd7565b600060405180830381600087803b158015610a4057600080fd5b505af1158015610a54573d6000803e3d6000fd5b505050506040518060c0016040528060045481526020018473ffffffffffffffffffffffffffffffffffffffff1681526020018381526020018281526020013373ffffffffffffffffffffffffffffffffffffffff168152602001600015158152506006600060045481526020019081526020016000206000820151816000015560208201518160010160006101000a81548173ffffffffffffffffffffffffffffffffffffffff021916908373ffffffffffffffffffffffffffffffffffffffff160217905550604082015181600201556060820151816003015560808201518160040160006101000a81548173ffffffffffffffffffffffffffffffffffffffff021916908373ffffffffffffffffffffffffffffffffffffffff16021790555060a08201518160040160146101000a81548160ff0219169083151502179055509050503373ffffffffffffffffffffffffffffffffffffffff168373ffffffffffffffffffffffffffffffffffffffff167f655a0cf9c8db81512be9a76dc1c5ae5380b8816ce6ad659cd61b715e2999d59a6004548585604051610bfd9392919061118a565b60405180910390a36001600081905550505050565b610c1a610d56565b73ffffffffffffffffffffffffffffffffffffffff16610c386103f4565b73ffffffffffffffffffffffffffffffffffffffff1614610c8e576040517f08c379a0000000000000000000000000000000000000000000000000000000008152600401610c85906110ce565b60405180910390fd5b565b6000600160009054906101000a900473ffffffffffffffffffffffffffffffffffffffff16905081600160006101000a81548173ffffffffffffffffffffffffffffffffffffffff021916908373ffffffffffffffffffffffffffffffffffffffff1602179055508173ffffffffffffffffffffffffffffffffffffffff168173ffffffffffffffffffffffffffffffffffffffff167f8be0079c531659141344cd1fd0a4f28419497f9722a3daafe3b4186f6b6457e060405160405180910390a35050565b600033905090565b600081359050610d6d816115b2565b92915050565b600081359050610d82816115c9565b92915050565b600081359050610d97816115e0565b92915050565b600060208284031215610daf57600080fd5b6000610dbd84828501610d5e565b91505092915050565b600080600060608486031215610ddb57600080fd5b6000610de986828701610d73565b9350506020610dfa86828701610d88565b9250506040610e0b86828701610d88565b9150509250925092565b600060208284031215610e2757600080fd5b6000610e3584828501610d88565b91505092915050565b610e47816112f9565b82525050565b610e56816112e7565b82525050565b610e658161130b565b82525050565b610e7481611353565b82525050565b6000610e876011836111c1565b9150610e928261141e565b602082019050919050565b6000610eaa601f836111c1565b9150610eb582611447565b602082019050919050565b6000610ecd6026836111c1565b9150610ed882611470565b604082019050919050565b6000610ef06033836111c1565b9150610efb826114bf565b604082019050919050565b6000610f136012836111c1565b9150610f1e8261150e565b602082019050919050565b6000610f366019836111c1565b9150610f4182611537565b602082019050919050565b6000610f596020836111c1565b9150610f6482611560565b602082019050919050565b6000610f7c601f836111c1565b9150610f8782611589565b602082019050919050565b610f9b81611349565b82525050565b6000602082019050610fb66000830184610e4d565b92915050565b6000602082019050610fd16000830184610e3e565b92915050565b6000606082019050610fec6000830186610e4d565b610ff96020830185610e4d565b6110066040830184610f92565b949350505050565b6000602082019050818103600083015261102781610e7a565b9050919050565b6000602082019050818103600083015261104781610e9d565b9050919050565b6000602082019050818103600083015261106781610ec0565b9050919050565b6000602082019050818103600083015261108781610ee3565b9050919050565b600060208201905081810360008301526110a781610f06565b9050919050565b600060208201905081810360008301526110c781610f29565b9050919050565b600060208201905081810360008301526110e781610f4c565b9050919050565b6000602082019050818103600083015261110781610f6f565b9050919050565b60006020820190506111236000830184610f92565b92915050565b600060c08201905061113e6000830189610f92565b61114b6020830188610e6b565b6111586040830187610f92565b6111656060830186610f92565b6111726080830185610e3e565b61117f60a0830184610e5c565b979650505050505050565b600060608201905061119f6000830186610f92565b6111ac6020830185610f92565b6111b96040830184610f92565b949350505050565b600082825260208201905092915050565b60006111dd82611349565b91506111e883611349565b9250827fffffffffffffffffffffffffffffffffffffffffffffffffffffffffffffffff0382111561121d5761121c6113c0565b5b828201905092915050565b600061123382611349565b915061123e83611349565b92508261124e5761124d6113ef565b5b828204905092915050565b600061126482611349565b915061126f83611349565b9250817fffffffffffffffffffffffffffffffffffffffffffffffffffffffffffffffff04831182151516156112a8576112a76113c0565b5b828202905092915050565b60006112be82611349565b91506112c983611349565b9250828210156112dc576112db6113c0565b5b828203905092915050565b60006112f282611329565b9050919050565b600061130482611329565b9050919050565b60008115159050919050565b6000611322826112e7565b9050919050565b600073ffffffffffffffffffffffffffffffffffffffff82169050919050565b6000819050919050565b600061135e82611365565b9050919050565b600061137082611329565b9050919050565b600061138282611349565b91507fffffffffffffffffffffffffffffffffffffffffffffffffffffffffffffffff8214156113b5576113b46113c0565b5b600182019050919050565b7f4e487b7100000000000000000000000000000000000000000000000000000000600052601160045260246000fd5b7f4e487b7100000000000000000000000000000000000000000000000000000000600052601260045260246000fd5b7f6974656d20616c726561647920736f6c64000000000000000000000000000000600082015250565b7f5072696365206d7573742062652067726561746572207468616e207a65726f00600082015250565b7f4f776e61626c653a206e6577206f776e657220697320746865207a65726f206160008201527f6464726573730000000000000000000000000000000000000000000000000000602082015250565b7f6e6f7420656e6f75676820657468657220746f20636f766572206974656d207060008201527f7269636520616e64206d61726b65742066656500000000000000000000000000602082015250565b7f6974656d20646f65736e27742065786973740000000000000000000000000000600082015250565b7f4e6f7468696e6720746f20776974686472617720686572652100000000000000600082015250565b7f4f776e61626c653a2063616c6c6572206973206e6f7420746865206f776e6572600082015250565b7f5265656e7472616e637947756172643a207265656e7472616e742063616c6c00600082015250565b6115bb816112e7565b81146115c657600080fd5b50565b6115d281611317565b81146115dd57600080fd5b50565b6115e981611349565b81146115f457600080fd5b5056fea2646970667358221220b3007eaeeb934d267a77953c530c60da3a699da59c3c73782842b9e9ca5e68d964736f6c63430008040033",
  "linkReferences": {},
  "deployedLinkReferences": {}
}