{
  "_format": "hh-sol-artifact-1",
  "contractName": "LXStudioNFT",
  "sourceName": "contracts/LXStudioNFT.sol",
  "abi": [
    {
      "inputs": [],
      "stateMutability": "nonpayable",
      "type": "constructor"
    },
    {
      "inputs": [],
      "name": "ApprovalCallerNotOwnerNorApproved",
      "type": "error"
    },
    {
      "inputs": [],
      "name": "ApprovalQueryForNonexistentToken",
      "type": "error"
    },
    {
      "inputs": [],
      "name": "BalanceQueryForZeroAddress",
      "type": "error"
    },
    {
      "inputs": [],
      "name": "MintERC2309QuantityExceedsLimit",
      "type": "error"
    },
    {
      "inputs": [],
      "name": "MintToZeroAddress",
      "type": "error"
    },
    {
      "inputs": [],
      "name": "MintZeroQuantity",
      "type": "error"
    },
    {
      "inputs": [],
      "name": "OwnerQueryForNonexistentToken",
      "type": "error"
    },
    {
      "inputs": [],
      "name": "OwnershipNotInitializedForExtraData",
      "type": "error"
    },
    {
      "inputs": [],
      "name": "TransferCallerNotOwnerNorApproved",
      "type": "error"
    },
    {
      "inputs": [],
      "name": "TransferFromIncorrectOwner",
      "type": "error"
    },
    {
      "inputs": [],
      "name": "TransferToNonERC721ReceiverImplementer",
      "type": "error"
    },
    {
      "inputs": [],
      "name": "TransferToZeroAddress",
      "type": "error"
    },
    {
      "inputs": [],
      "name": "URIQueryForNonexistentToken",
      "type": "error"
    },
    {
      "anonymous": false,
      "inputs": [
        {
          "indexed": true,
          "internalType": "address",
          "name": "owner",
          "type": "address"
        },
        {
          "indexed": true,
          "internalType": "address",
          "name": "approved",
          "type": "address"
        },
        {
          "indexed": true,
          "internalType": "uint256",
          "name": "tokenId",
          "type": "uint256"
        }
      ],
      "name": "Approval",
      "type": "event"
    },
    {
      "anonymous": false,
      "inputs": [
        {
          "indexed": true,
          "internalType": "address",
          "name": "owner",
          "type": "address"
        },
        {
          "indexed": true,
          "internalType": "address",
          "name": "operator",
          "type": "address"
        },
        {
          "indexed": false,
          "internalType": "bool",
          "name": "approved",
          "type": "bool"
        }
      ],
      "name": "ApprovalForAll",
      "type": "event"
    },
    {
      "anonymous": false,
      "inputs": [
        {
          "indexed": true,
          "internalType": "uint256",
          "name": "fromTokenId",
          "type": "uint256"
        },
        {
          "indexed": false,
          "internalType": "uint256",
          "name": "toTokenId",
          "type": "uint256"
        },
        {
          "indexed": true,
          "internalType": "address",
          "name": "from",
          "type": "address"
        },
        {
          "indexed": true,
          "internalType": "address",
          "name": "to",
          "type": "address"
        }
      ],
      "name": "ConsecutiveTransfer",
      "type": "event"
    },
    {
      "anonymous": false,
      "inputs": [
        {
          "indexed": true,
          "internalType": "address",
          "name": "previousOwner",
          "type": "address"
        },
        {
          "indexed": true,
          "internalType": "address",
          "name": "newOwner",
          "type": "address"
        }
      ],
      "name": "OwnershipTransferred",
      "type": "event"
    },
    {
      "anonymous": false,
      "inputs": [
        {
          "indexed": true,
          "internalType": "address",
          "name": "from",
          "type": "address"
        },
        {
          "indexed": true,
          "internalType": "address",
          "name": "to",
          "type": "address"
        },
        {
          "indexed": true,
          "internalType": "uint256",
          "name": "tokenId",
          "type": "uint256"
        }
      ],
      "name": "Transfer",
      "type": "event"
    },
    {
      "inputs": [
        {
          "internalType": "address",
          "name": "to",
          "type": "address"
        },
        {
          "internalType": "uint256",
          "name": "tokenId",
          "type": "uint256"
        }
      ],
      "name": "approve",
      "outputs": [],
      "stateMutability": "payable",
      "type": "function"
    },
    {
      "inputs": [
        {
          "internalType": "address",
          "name": "owner",
          "type": "address"
        }
      ],
      "name": "balanceOf",
      "outputs": [
        {
          "internalType": "uint256",
          "name": "",
          "type": "uint256"
        }
      ],
      "stateMutability": "view",
      "type": "function"
    },
    {
      "inputs": [],
      "name": "baseURI",
      "outputs": [
        {
          "internalType": "string",
          "name": "",
          "type": "string"
        }
      ],
      "stateMutability": "view",
      "type": "function"
    },
    {
      "inputs": [
        {
          "internalType": "uint256",
          "name": "tokenId",
          "type": "uint256"
        }
      ],
      "name": "getApproved",
      "outputs": [
        {
          "internalType": "address",
          "name": "",
          "type": "address"
        }
      ],
      "stateMutability": "view",
      "type": "function"
    },
    {
      "inputs": [
        {
          "internalType": "address",
          "name": "owner",
          "type": "address"
        },
        {
          "internalType": "address",
          "name": "operator",
          "type": "address"
        }
      ],
      "name": "isApprovedForAll",
      "outputs": [
        {
          "internalType": "bool",
          "name": "",
          "type": "bool"
        }
      ],
      "stateMutability": "view",
      "type": "function"
    },
    {
      "inputs": [
        {
          "internalType": "uint256",
          "name": "quantity",
          "type": "uint256"
        }
      ],
      "name": "mint",
      "outputs": [],
      "stateMutability": "payable",
      "type": "function"
    },
    {
      "inputs": [],
      "name": "mintRate",
      "outputs": [
        {
          "internalType": "uint256",
          "name": "",
          "type": "uint256"
        }
      ],
      "stateMutability": "view",
      "type": "function"
    },
    {
      "inputs": [],
      "name": "name",
      "outputs": [
        {
          "internalType": "string",
          "name": "",
          "type": "string"
        }
      ],
      "stateMutability": "view",
      "type": "function"
    },
    {
      "inputs": [],
      "name": "owner",
      "outputs": [
        {
          "internalType": "address",
          "name": "",
          "type": "address"
        }
      ],
      "stateMutability": "view",
      "type": "function"
    },
    {
      "inputs": [
        {
          "internalType": "uint256",
          "name": "tokenId",
          "type": "uint256"
        }
      ],
      "name": "ownerOf",
      "outputs": [
        {
          "internalType": "address",
          "name": "",
          "type": "address"
        }
      ],
      "stateMutability": "view",
      "type": "function"
    },
    {
      "inputs": [],
      "name": "renounceOwnership",
      "outputs": [],
      "stateMutability": "nonpayable",
      "type": "function"
    },
    {
      "inputs": [
        {
          "internalType": "address",
          "name": "from",
          "type": "address"
        },
        {
          "internalType": "address",
          "name": "to",
          "type": "address"
        },
        {
          "internalType": "uint256",
          "name": "tokenId",
          "type": "uint256"
        }
      ],
      "name": "safeTransferFrom",
      "outputs": [],
      "stateMutability": "payable",
      "type": "function"
    },
    {
      "inputs": [
        {
          "internalType": "address",
          "name": "from",
          "type": "address"
        },
        {
          "internalType": "address",
          "name": "to",
          "type": "address"
        },
        {
          "internalType": "uint256",
          "name": "tokenId",
          "type": "uint256"
        },
        {
          "internalType": "bytes",
          "name": "_data",
          "type": "bytes"
        }
      ],
      "name": "safeTransferFrom",
      "outputs": [],
      "stateMutability": "payable",
      "type": "function"
    },
    {
      "inputs": [
        {
          "internalType": "address",
          "name": "operator",
          "type": "address"
        },
        {
          "internalType": "bool",
          "name": "approved",
          "type": "bool"
        }
      ],
      "name": "setApprovalForAll",
      "outputs": [],
      "stateMutability": "nonpayable",
      "type": "function"
    },
    {
      "inputs": [
        {
          "internalType": "uint256",
          "name": "_mintRate",
          "type": "uint256"
        }
      ],
      "name": "setMintRate",
      "outputs": [],
      "stateMutability": "nonpayable",
      "type": "function"
    },
    {
      "inputs": [
        {
          "internalType": "bytes4",
          "name": "interfaceId",
          "type": "bytes4"
        }
      ],
      "name": "supportsInterface",
      "outputs": [
        {
          "internalType": "bool",
          "name": "",
          "type": "bool"
        }
      ],
      "stateMutability": "view",
      "type": "function"
    },
    {
      "inputs": [],
      "name": "symbol",
      "outputs": [
        {
          "internalType": "string",
          "name": "",
          "type": "string"
        }
      ],
      "stateMutability": "view",
      "type": "function"
    },
    {
      "inputs": [
        {
          "internalType": "uint256",
          "name": "tokenId",
          "type": "uint256"
        }
      ],
      "name": "tokenURI",
      "outputs": [
        {
          "internalType": "string",
          "name": "",
          "type": "string"
        }
      ],
      "stateMutability": "view",
      "type": "function"
    },
    {
      "inputs": [],
      "name": "totalSupply",
      "outputs": [
        {
          "internalType": "uint256",
          "name": "",
          "type": "uint256"
        }
      ],
      "stateMutability": "view",
      "type": "function"
    },
    {
      "inputs": [
        {
          "internalType": "address",
          "name": "from",
          "type": "address"
        },
        {
          "internalType": "address",
          "name": "to",
          "type": "address"
        },
        {
          "internalType": "uint256",
          "name": "tokenId",
          "type": "uint256"
        }
      ],
      "name": "transferFrom",
      "outputs": [],
      "stateMutability": "payable",
      "type": "function"
    },
    {
      "inputs": [
        {
          "internalType": "address",
          "name": "newOwner",
          "type": "address"
        }
      ],
      "name": "transferOwnership",
      "outputs": [],
      "stateMutability": "nonpayable",
      "type": "function"
    },
    {
      "inputs": [],
      "name": "withdraw",
      "outputs": [],
      "stateMutability": "payable",
      "type": "function"
    }
  ],
  "bytecode": "0x6080604052601160095562018d52600a55655c8222d6b400600b556040518060800160405280604381526020016200285e60439139600c90805190602001906200004b92919062000209565b503480156200005957600080fd5b506040518060400160405280600b81526020017f4c58204c616273204e46540000000000000000000000000000000000000000008152506040518060400160405280600581526020017f4c584e46540000000000000000000000000000000000000000000000000000008152508160029080519060200190620000de92919062000209565b508060039080519060200190620000f792919062000209565b50620001086200013660201b60201c565b600081905550505062000130620001246200013b60201b60201c565b6200014360201b60201c565b6200031e565b600090565b600033905090565b6000600860009054906101000a900473ffffffffffffffffffffffffffffffffffffffff16905081600860006101000a81548173ffffffffffffffffffffffffffffffffffffffff021916908373ffffffffffffffffffffffffffffffffffffffff1602179055508173ffffffffffffffffffffffffffffffffffffffff168173ffffffffffffffffffffffffffffffffffffffff167f8be0079c531659141344cd1fd0a4f28419497f9722a3daafe3b4186f6b6457e060405160405180910390a35050565b8280546200021790620002b9565b90600052602060002090601f0160209004810192826200023b576000855562000287565b82601f106200025657805160ff191683800117855562000287565b8280016001018555821562000287579182015b828111156200028657825182559160200191906001019062000269565b5b5090506200029691906200029a565b5090565b5b80821115620002b55760008160009055506001016200029b565b5090565b60006002820490506001821680620002d257607f821691505b60208210811415620002e957620002e8620002ef565b5b50919050565b7f4e487b7100000000000000000000000000000000000000000000000000000000600052602260045260246000fd5b612530806200032e6000396000f3fe6080604052600436106101355760003560e01c8063715018a6116100ab578063b88d4fde1161006f578063b88d4fde146103bf578063c87b56dd146103db578063ca0dcf1614610418578063dbe2193f14610443578063e985e9c51461046c578063f2fde38b146104a957610135565b8063715018a61461030d5780638da5cb5b1461032457806395d89b411461034f578063a0712d681461037a578063a22cb4651461039657610135565b806323b872dd116100fd57806323b872dd146102265780633ccfd60b1461024257806342842e0e1461024c5780636352211e146102685780636c0360eb146102a557806370a08231146102d057610135565b806301ffc9a71461013a57806306fdde0314610177578063081812fc146101a2578063095ea7b3146101df57806318160ddd146101fb575b600080fd5b34801561014657600080fd5b50610161600480360381019061015c9190611d0e565b6104d2565b60405161016e9190611f9f565b60405180910390f35b34801561018357600080fd5b5061018c610564565b6040516101999190611fba565b60405180910390f35b3480156101ae57600080fd5b506101c960048036038101906101c49190611d68565b6105f6565b6040516101d69190611f38565b60405180910390f35b6101f960048036038101906101f49190611cce565b610675565b005b34801561020757600080fd5b506102106107b9565b60405161021d919061207c565b60405180910390f35b610240600480360381019061023b9190611bb8565b6107d0565b005b61024a610af5565b005b61026660048036038101906102619190611bb8565b610b4d565b005b34801561027457600080fd5b5061028f600480360381019061028a9190611d68565b610b6d565b60405161029c9190611f38565b60405180910390f35b3480156102b157600080fd5b506102ba610b7f565b6040516102c79190611fba565b60405180910390f35b3480156102dc57600080fd5b506102f760048036038101906102f29190611b4b565b610c0d565b604051610304919061207c565b60405180910390f35b34801561031957600080fd5b50610322610cc6565b005b34801561033057600080fd5b50610339610cda565b6040516103469190611f38565b60405180910390f35b34801561035b57600080fd5b50610364610d04565b6040516103719190611fba565b60405180910390f35b610394600480360381019061038f9190611d68565b610d96565b005b3480156103a257600080fd5b506103bd60048036038101906103b89190611c8e565b610ea2565b005b6103d960048036038101906103d49190611c0b565b610fad565b005b3480156103e757600080fd5b5061040260048036038101906103fd9190611d68565b611020565b60405161040f9190611fba565b60405180910390f35b34801561042457600080fd5b5061042d6110bf565b60405161043a919061207c565b60405180910390f35b34801561044f57600080fd5b5061046a60048036038101906104659190611d68565b6110c5565b005b34801561047857600080fd5b50610493600480360381019061048e9190611b78565b6110d7565b6040516104a09190611f9f565b60405180910390f35b3480156104b557600080fd5b506104d060048036038101906104cb9190611b4b565b61116b565b005b60006301ffc9a760e01b827bffffffffffffffffffffffffffffffffffffffffffffffffffffffff1916148061052d57506380ac58cd60e01b827bffffffffffffffffffffffffffffffffffffffffffffffffffffffff1916145b8061055d5750635b5e139f60e01b827bffffffffffffffffffffffffffffffffffffffffffffffffffffffff1916145b9050919050565b60606002805461057390612296565b80601f016020809104026020016040519081016040528092919081815260200182805461059f90612296565b80156105ec5780601f106105c1576101008083540402835291602001916105ec565b820191906000526020600020905b8154815290600101906020018083116105cf57829003601f168201915b5050505050905090565b6000610601826111ef565b610637576040517fcf4700e400000000000000000000000000000000000000000000000000000000815260040160405180910390fd5b6006600083815260200190815260200160002060000160009054906101000a900473ffffffffffffffffffffffffffffffffffffffff169050919050565b600061068082610b6d565b90508073ffffffffffffffffffffffffffffffffffffffff166106a161124e565b73ffffffffffffffffffffffffffffffffffffffff1614610704576106cd816106c861124e565b6110d7565b610703576040517fcfb3b94200000000000000000000000000000000000000000000000000000000815260040160405180910390fd5b5b826006600084815260200190815260200160002060000160006101000a81548173ffffffffffffffffffffffffffffffffffffffff021916908373ffffffffffffffffffffffffffffffffffffffff160217905550818373ffffffffffffffffffffffffffffffffffffffff168273ffffffffffffffffffffffffffffffffffffffff167f8c5be1e5ebec7d5bd14f71427d1e84f3dd0314c0f7b2291e5b200ac8c7c3b92560405160405180910390a4505050565b60006107c3611256565b6001546000540303905090565b60006107db8261125b565b90508373ffffffffffffffffffffffffffffffffffffffff168173ffffffffffffffffffffffffffffffffffffffff1614610842576040517fa114810000000000000000000000000000000000000000000000000000000000815260040160405180910390fd5b60008061084e84611329565b91509150610864818761085f61124e565b611350565b6108b0576108798661087461124e565b6110d7565b6108af576040517f59c896be00000000000000000000000000000000000000000000000000000000815260040160405180910390fd5b5b600073ffffffffffffffffffffffffffffffffffffffff168573ffffffffffffffffffffffffffffffffffffffff161415610917576040517fea553b3400000000000000000000000000000000000000000000000000000000815260040160405180910390fd5b6109248686866001611394565b801561092f57600082555b600560008773ffffffffffffffffffffffffffffffffffffffff1673ffffffffffffffffffffffffffffffffffffffff168152602001908152602001600020600081546001900391905081905550600560008673ffffffffffffffffffffffffffffffffffffffff1673ffffffffffffffffffffffffffffffffffffffff16815260200190815260200160002060008154600101919050819055506109fd856109d988888761139a565b7c0200000000000000000000000000000000000000000000000000000000176113c2565b600460008681526020019081526020016000208190555060007c020000000000000000000000000000000000000000000000000000000084161415610a85576000600185019050600060046000838152602001908152602001600020541415610a83576000548114610a82578360046000838152602001908152602001600020819055505b5b505b838573ffffffffffffffffffffffffffffffffffffffff168773ffffffffffffffffffffffffffffffffffffffff167fddf252ad1be2c89b69c2b068fc378daa952ba7f163c4a11628f55a4df523b3ef60405160405180910390a4610aed86868660016113ed565b505050505050565b610afd6113f3565b610b05610cda565b73ffffffffffffffffffffffffffffffffffffffff166108fc479081150290604051600060405180830381858888f19350505050158015610b4a573d6000803e3d6000fd5b50565b610b6883838360405180602001604052806000815250610fad565b505050565b6000610b788261125b565b9050919050565b600c8054610b8c90612296565b80601f0160208091040260200160405190810160405280929190818152602001828054610bb890612296565b8015610c055780601f10610bda57610100808354040283529160200191610c05565b820191906000526020600020905b815481529060010190602001808311610be857829003601f168201915b505050505081565b60008073ffffffffffffffffffffffffffffffffffffffff168273ffffffffffffffffffffffffffffffffffffffff161415610c75576040517f8f4eb60400000000000000000000000000000000000000000000000000000000815260040160405180910390fd5b67ffffffffffffffff600560008473ffffffffffffffffffffffffffffffffffffffff1673ffffffffffffffffffffffffffffffffffffffff16815260200190815260200160002054169050919050565b610cce6113f3565b610cd86000611471565b565b6000600860009054906101000a900473ffffffffffffffffffffffffffffffffffffffff16905090565b606060038054610d1390612296565b80601f0160208091040260200160405190810160405280929190818152602001828054610d3f90612296565b8015610d8c5780601f10610d6157610100808354040283529160200191610d8c565b820191906000526020600020905b815481529060010190602001808311610d6f57829003601f168201915b5050505050905090565b600954610da233611537565b82610dad9190612130565b1115610dee576040517f08c379a0000000000000000000000000000000000000000000000000000000008152600401610de590611ffc565b60405180910390fd5b600a5481610dfa6107b9565b610e049190612130565b1115610e45576040517f08c379a0000000000000000000000000000000000000000000000000000000008152600401610e3c9061201c565b60405180910390fd5b80600b54610e539190612186565b341015610e95576040517f08c379a0000000000000000000000000000000000000000000000000000000008152600401610e8c9061205c565b60405180910390fd5b610e9f338261158e565b50565b8060076000610eaf61124e565b73ffffffffffffffffffffffffffffffffffffffff1673ffffffffffffffffffffffffffffffffffffffff16815260200190815260200160002060008473ffffffffffffffffffffffffffffffffffffffff1673ffffffffffffffffffffffffffffffffffffffff16815260200190815260200160002060006101000a81548160ff0219169083151502179055508173ffffffffffffffffffffffffffffffffffffffff16610f5c61124e565b73ffffffffffffffffffffffffffffffffffffffff167f17307eab39ab6107e8899845ad3d59bd9653f200f220920489ca2b5937696c3183604051610fa19190611f9f565b60405180910390a35050565b610fb88484846107d0565b60008373ffffffffffffffffffffffffffffffffffffffff163b1461101a57610fe3848484846115ac565b611019576040517fd1a57ed600000000000000000000000000000000000000000000000000000000815260040160405180910390fd5b5b50505050565b606061102b826111ef565b611061576040517fa14c4b5000000000000000000000000000000000000000000000000000000000815260040160405180910390fd5b600061106b61170c565b905060008151141561108c57604051806020016040528060008152506110b7565b806110968461179e565b6040516020016110a7929190611f14565b6040516020818303038152906040525b915050919050565b600b5481565b6110cd6113f3565b80600b8190555050565b6000600760008473ffffffffffffffffffffffffffffffffffffffff1673ffffffffffffffffffffffffffffffffffffffff16815260200190815260200160002060008373ffffffffffffffffffffffffffffffffffffffff1673ffffffffffffffffffffffffffffffffffffffff16815260200190815260200160002060009054906101000a900460ff16905092915050565b6111736113f3565b600073ffffffffffffffffffffffffffffffffffffffff168173ffffffffffffffffffffffffffffffffffffffff1614156111e3576040517f08c379a00000000000000000000000000000000000000000000000000000000081526004016111da90611fdc565b60405180910390fd5b6111ec81611471565b50565b6000816111fa611256565b11158015611209575060005482105b8015611247575060007c0100000000000000000000000000000000000000000000000000000000600460008581526020019081526020016000205416145b9050919050565b600033905090565b600090565b6000808290508061126a611256565b116112f2576000548110156112f15760006004600083815260200190815260200160002054905060007c0100000000000000000000000000000000000000000000000000000000821614156112ef575b60008114156112e55760046000836001900393508381526020019081526020016000205490506112ba565b8092505050611324565b505b5b6040517fdf2d9b4200000000000000000000000000000000000000000000000000000000815260040160405180910390fd5b919050565b60008060006006600085815260200190815260200160002090508092508254915050915091565b600073ffffffffffffffffffffffffffffffffffffffff8316925073ffffffffffffffffffffffffffffffffffffffff821691508382148383141790509392505050565b50505050565b60008060e883901c905060e86113b18686846117f7565b62ffffff16901b9150509392505050565b600073ffffffffffffffffffffffffffffffffffffffff83169250814260a01b178317905092915050565b50505050565b6113fb611800565b73ffffffffffffffffffffffffffffffffffffffff16611419610cda565b73ffffffffffffffffffffffffffffffffffffffff161461146f576040517f08c379a00000000000000000000000000000000000000000000000000000000081526004016114669061203c565b60405180910390fd5b565b6000600860009054906101000a900473ffffffffffffffffffffffffffffffffffffffff16905081600860006101000a81548173ffffffffffffffffffffffffffffffffffffffff021916908373ffffffffffffffffffffffffffffffffffffffff1602179055508173ffffffffffffffffffffffffffffffffffffffff168173ffffffffffffffffffffffffffffffffffffffff167f8be0079c531659141344cd1fd0a4f28419497f9722a3daafe3b4186f6b6457e060405160405180910390a35050565b600067ffffffffffffffff6040600560008573ffffffffffffffffffffffffffffffffffffffff1673ffffffffffffffffffffffffffffffffffffffff16815260200190815260200160002054901c169050919050565b6115a8828260405180602001604052806000815250611808565b5050565b60008373ffffffffffffffffffffffffffffffffffffffff1663150b7a026115d261124e565b8786866040518563ffffffff1660e01b81526004016115f49493929190611f53565b602060405180830381600087803b15801561160e57600080fd5b505af192505050801561163f57506040513d601f19601f8201168201806040525081019061163c9190611d3b565b60015b6116b9573d806000811461166f576040519150601f19603f3d011682016040523d82523d6000602084013e611674565b606091505b506000815114156116b1576040517fd1a57ed600000000000000000000000000000000000000000000000000000000815260040160405180910390fd5b805181602001fd5b63150b7a0260e01b7bffffffffffffffffffffffffffffffffffffffffffffffffffffffff1916817bffffffffffffffffffffffffffffffffffffffffffffffffffffffff191614915050949350505050565b6060600c805461171b90612296565b80601f016020809104026020016040519081016040528092919081815260200182805461174790612296565b80156117945780601f1061176957610100808354040283529160200191611794565b820191906000526020600020905b81548152906001019060200180831161177757829003601f168201915b5050505050905090565b606060a060405101806040526020810391506000825281835b6001156117e257600184039350600a81066030018453600a81049050806117dd576117e2565b6117b7565b50828103602084039350808452505050919050565b60009392505050565b600033905090565b61181283836118a5565b60008373ffffffffffffffffffffffffffffffffffffffff163b146118a057600080549050600083820390505b61185260008683806001019450866115ac565b611888576040517fd1a57ed600000000000000000000000000000000000000000000000000000000815260040160405180910390fd5b81811061183f57816000541461189d57600080fd5b50505b505050565b60008054905060008214156118e6576040517fb562e8dd00000000000000000000000000000000000000000000000000000000815260040160405180910390fd5b6118f36000848385611394565b600160406001901b178202600560008573ffffffffffffffffffffffffffffffffffffffff1673ffffffffffffffffffffffffffffffffffffffff1681526020019081526020016000206000828254019250508190555061196a8361195b600086600061139a565b61196485611a62565b176113c2565b6004600083815260200190815260200160002081905550600080838301905073ffffffffffffffffffffffffffffffffffffffff85169150828260007fddf252ad1be2c89b69c2b068fc378daa952ba7f163c4a11628f55a4df523b3ef600080a4600183015b818114611a0b57808360007fddf252ad1be2c89b69c2b068fc378daa952ba7f163c4a11628f55a4df523b3ef600080a46001810190506119d0565b506000821415611a47576040517f2e07630000000000000000000000000000000000000000000000000000000000815260040160405180910390fd5b806000819055505050611a5d60008483856113ed565b505050565b60006001821460e11b9050919050565b6000611a85611a80846120bc565b612097565b905082815260208101848484011115611aa157611aa061238b565b5b611aac848285612254565b509392505050565b600081359050611ac38161249e565b92915050565b600081359050611ad8816124b5565b92915050565b600081359050611aed816124cc565b92915050565b600081519050611b02816124cc565b92915050565b600082601f830112611b1d57611b1c612386565b5b8135611b2d848260208601611a72565b91505092915050565b600081359050611b45816124e3565b92915050565b600060208284031215611b6157611b60612395565b5b6000611b6f84828501611ab4565b91505092915050565b60008060408385031215611b8f57611b8e612395565b5b6000611b9d85828601611ab4565b9250506020611bae85828601611ab4565b9150509250929050565b600080600060608486031215611bd157611bd0612395565b5b6000611bdf86828701611ab4565b9350506020611bf086828701611ab4565b9250506040611c0186828701611b36565b9150509250925092565b60008060008060808587031215611c2557611c24612395565b5b6000611c3387828801611ab4565b9450506020611c4487828801611ab4565b9350506040611c5587828801611b36565b925050606085013567ffffffffffffffff811115611c7657611c75612390565b5b611c8287828801611b08565b91505092959194509250565b60008060408385031215611ca557611ca4612395565b5b6000611cb385828601611ab4565b9250506020611cc485828601611ac9565b9150509250929050565b60008060408385031215611ce557611ce4612395565b5b6000611cf385828601611ab4565b9250506020611d0485828601611b36565b9150509250929050565b600060208284031215611d2457611d23612395565b5b6000611d3284828501611ade565b91505092915050565b600060208284031215611d5157611d50612395565b5b6000611d5f84828501611af3565b91505092915050565b600060208284031215611d7e57611d7d612395565b5b6000611d8c84828501611b36565b91505092915050565b611d9e816121e0565b82525050565b611dad816121f2565b82525050565b6000611dbe826120ed565b611dc88185612103565b9350611dd8818560208601612263565b611de18161239a565b840191505092915050565b6000611df7826120f8565b611e018185612114565b9350611e11818560208601612263565b611e1a8161239a565b840191505092915050565b6000611e30826120f8565b611e3a8185612125565b9350611e4a818560208601612263565b80840191505092915050565b6000611e63602683612114565b9150611e6e826123ab565b604082019050919050565b6000611e86601283612114565b9150611e91826123fa565b602082019050919050565b6000611ea9601683612114565b9150611eb482612423565b602082019050919050565b6000611ecc602083612114565b9150611ed78261244c565b602082019050919050565b6000611eef601583612114565b9150611efa82612475565b602082019050919050565b611f0e8161224a565b82525050565b6000611f208285611e25565b9150611f2c8284611e25565b91508190509392505050565b6000602082019050611f4d6000830184611d95565b92915050565b6000608082019050611f686000830187611d95565b611f756020830186611d95565b611f826040830185611f05565b8181036060830152611f948184611db3565b905095945050505050565b6000602082019050611fb46000830184611da4565b92915050565b60006020820190508181036000830152611fd48184611dec565b905092915050565b60006020820190508181036000830152611ff581611e56565b9050919050565b6000602082019050818103600083015261201581611e79565b9050919050565b6000602082019050818103600083015261203581611e9c565b9050919050565b6000602082019050818103600083015261205581611ebf565b9050919050565b6000602082019050818103600083015261207581611ee2565b9050919050565b60006020820190506120916000830184611f05565b92915050565b60006120a16120b2565b90506120ad82826122c8565b919050565b6000604051905090565b600067ffffffffffffffff8211156120d7576120d6612357565b5b6120e08261239a565b9050602081019050919050565b600081519050919050565b600081519050919050565b600082825260208201905092915050565b600082825260208201905092915050565b600081905092915050565b600061213b8261224a565b91506121468361224a565b9250827fffffffffffffffffffffffffffffffffffffffffffffffffffffffffffffffff0382111561217b5761217a6122f9565b5b828201905092915050565b60006121918261224a565b915061219c8361224a565b9250817fffffffffffffffffffffffffffffffffffffffffffffffffffffffffffffffff04831182151516156121d5576121d46122f9565b5b828202905092915050565b60006121eb8261222a565b9050919050565b60008115159050919050565b60007fffffffff0000000000000000000000000000000000000000000000000000000082169050919050565b600073ffffffffffffffffffffffffffffffffffffffff82169050919050565b6000819050919050565b82818337600083830152505050565b60005b83811015612281578082015181840152602081019050612266565b83811115612290576000848401525b50505050565b600060028204905060018216806122ae57607f821691505b602082108114156122c2576122c1612328565b5b50919050565b6122d18261239a565b810181811067ffffffffffffffff821117156122f0576122ef612357565b5b80604052505050565b7f4e487b7100000000000000000000000000000000000000000000000000000000600052601160045260246000fd5b7f4e487b7100000000000000000000000000000000000000000000000000000000600052602260045260246000fd5b7f4e487b7100000000000000000000000000000000000000000000000000000000600052604160045260246000fd5b600080fd5b600080fd5b600080fd5b600080fd5b6000601f19601f8301169050919050565b7f4f776e61626c653a206e6577206f776e657220697320746865207a65726f206160008201527f6464726573730000000000000000000000000000000000000000000000000000602082015250565b7f457863656564656420746865206c696d69740000000000000000000000000000600082015250565b7f4e6f7420656e6f75676820746f6b656e73206c65667400000000000000000000600082015250565b7f4f776e61626c653a2063616c6c6572206973206e6f7420746865206f776e6572600082015250565b7f4e6f7420656e6f7567682065746865722073656e740000000000000000000000600082015250565b6124a7816121e0565b81146124b257600080fd5b50565b6124be816121f2565b81146124c957600080fd5b50565b6124d5816121fe565b81146124e057600080fd5b50565b6124ec8161224a565b81146124f757600080fd5b5056fea2646970667358221220191023225a06efd024341b7684f2de5be96f40ecc4b0467fde0240fe260de61b64736f6c63430008070033697066733a2f2f62616679626569657965746c7032633276756266667a6a6a6170377574757a356a776f326b3562356b757076657a6663686335746e6667346668342f",
  "linkReferences": {},
  "deployedLinkReferences": {}
}